:020000040000FA
:0820000047432B320FEF10F0F3
:04200C0098EF18F041
:10201C00FF0009EF17F0010E0001B16F000E846F85
:10202C0063EC18F06F0028FFB2F06F002CFFB3F0D8
:10203C006F0030FFB4F0CDEC18F00001CD05D8A442
:10204C0005D0180E3A016013E70E6117600014F307
:10205C0001F0600018F302F060001CF303F00001C3
:10206C00C45147EC13F0E8EC17F05FEC17F088EC78
:10207C0019F00001B2AFB2BD06D0B2B904D028EC51
:10208C0018F0B6EC19F0A0EC16F0800ED26E6F00C2
:10209C0028FFB2F06F002CFFB3F06F0030FFB4F0EC
:1020AC000001B2AFB2BD01D0B4B3040028EC12F001
:1020BC00600E016E000E026E1BEC19F00001B06F89
:1020CC00B051D8A48DD1E3D7090E896F000E8A6F59
:1020DC00030E8B6F890E076E000E086E030E096ED1
:1020EC0034EC16F0D4D7CC5135EC1AF00ED03FECC2
:1020FC001AF00BD03BEC1AF008D06251010AD8B49C
:10210C00F2D7030AD8B4F3D7F5D7600034F301F053
:10211C0000016151FCEC14F0600004F007F0600069
:10212C0008F008F0080E096E34EC16F0B0D7000E6B
:10213C00896F800E8A6F800E8B6F800E8C6F800E75
:10214C008D6F800E8E6F000E8F6F000E906F000ED5
:10215C00916F000E926F890E076E000E086E0A0EBC
:10216C00096E34EC16F093D7470E6119D8A412D02F
:10217C00430E6219D8A40ED02B0E6319D8A40AD022
:10218C00320E6419D8A406D0050EB019D8A402D00A
:10219C00000E01D0010EB16F000E0001896F890E87
:1021AC00076E000E086E010E096E34EC16F06FD738
:1021BC00B151D8A413D0020E896F120E8A6F000E83
:1021CC008B6F100E8C6F000E8D6F890E076E000ECC
:1021DC00086E050E096E34EC16F059D78969DFD7F5
:1021EC00B151D8A4FBD7030EB06520D0600088F1A4
:1021FC00AEF0AF6BAE51AF6FAE6B6151AE13030E61
:10220C00B56F0FD0600EB525D96EDA6A000EDA22E2
:10221C00DF50016EAE51F8EC19F00001AE4BAF2B54
:10222C00B52BB051B55DD8B0B7D7ECD7FE0EB6D73D
:10223C00B151D8A4D3D7040EB019D8A4F7D76000E5
:10224C0088F1AEF0AF6BAE51AF6FAE6B6151AE13A8
:10225C0060008CF1ADF0AD51D8B4E8D7000E896FA9
:10226C00000EB56F15D0B551246E256A010E2426CB
:10227C00000E2522890E2424D96E000E2520DA6E3C
:10228C00AE510AEC1AF0DF6E0001AE4BAF2BB52B42
:10229C00AD51B55DD8B003D01F0EB565E4D7890E2E
:1022AC00076E000E086EAD29096E34EC16F0EFD6F1
:1022BC00FF00EDD6B151D8A491D7000E896F890ECD
:1022CC00076E000E086E010E096E34EC16F0F9EC78
:1022DC0018F0DDD6B151D8A481D7100EB019D8A4FE
:1022EC00A5D7610E016E000E026EE2EC19F054D708
:1022FC00B151D8A473D7100EB019D8A497D7610ECA
:10230C00016E000E026ECCEC19F046D7B151D8A478
:10231C0065D76EEC19F0600004F085F0600008F0F1
:10232C0086F0000E0001896F000EB56F0E0EB565BC
:10233C0001D018D0B5518525D96E000E8621DA6EE4
:10234C00B551246E256A010E2426000E2522890E15
:10235C002424E16E000E2520E26E6F007FFFE7FF64
:10236C00B52BE4D7890E076E000E086E100E096EA1
:10237C0034EC16F08CD6B151D8A430D754EC19F0FB
:10238C00600004F087F0600008F088F0000E000197
:10239C00896F000EB56F0E0EB56501D0E3D7B55140
:1023AC008725D96E000E8821DA6EB551246E256A08
:1023BC00010E2426000E2522890E2424E16E000E27
:1023CC002520E26E6F007FFFE7FFB52BE4D7B151FC
:1023DC00D8A404D7A0EC16F0DFD61DEC1AF057D613
:1023EC006051000AD8B470D6100AD8B4BDD6010A10
:1023FC00D8B4DED6030AD8B4F3D6010AD8B418D7A9
:10240C00070AD8B455D7010AD8B454D7030AD8B49C
:10241C0061D7010AD8B46CD70F0AD8B477D7010AA0
:10242C00D8B4A9D7390AD8B4D2D7600AD8B465D6EB
:10243C00010AD8B47CD6030AD8B479D6BD0AD8B46C
:10244C0043D6CBD76F0028FF01F06F002CFF02F0B2
:10245C006F0030FF03F039500118056E3A50021826
:10246C00066E3B500318076E600004F039F06000F4
:10247C0008F03AF060000CF03BF005A802D0000E1A
:10248C00266E05AA02D0000E276E05AE02D0000EF5
:10249C00286E05AC02D0000E296E07A202D0000EE9
:1024AC002A6E06A202D0000E2B6E06A002D0000EE1
:1024BC002C6E07AE02D0000E2D6E07AC02D0000EB3
:1024CC002E6E07A002D0000E2F6E07A402D0000EB5
:1024DC00306E07AA02D0000E316E07A802D0000E93
:1024EC00326E07A602D0000E336E06AA02D0000E82
:1024FC00346E3901A3AF1200A39F000E046E260E9A
:10250C000424D96EDA6A000EDA22DF2A042A0E0EAF
:10251C000464F5D7000E356E800E366E090E2664F7
:10252C0009D039B807D00A0E266E0001DD513512DC
:10253C00CE513612090E276409D039BA07D00A0ECB
:10254C00276E0001DE513512CF513612090E286468
:10255C0009D039BE07D00A0E286E0001DF513512A2
:10256C00D0513612090E296409D039BC07D00A0E95
:10257C00296E0001E0513512D1513612090E2A6430
:10258C0009D03BB207D00A0E2A6E0001E151351278
:10259C00D2513612090E2B6409D03AB207D00A0E6A
:1025AC002B6E0001E2513512D3513612090E2C64F8
:1025BC0009D03AB007D00A0E2C6E0001E351351247
:1025CC00D4513612090E2D6409D03BBE07D00A0E29
:1025DC002D6E0001E4513512D5513612090E2E64C0
:1025EC0009D03BBC07D00A0E2E6E0001E551351206
:1025FC00D6513612090E2F6409D03BB007D00A0E03
:10260C002F6E0001E6513512D7513612090E306487
:10261C0009D03BB407D00A0E306E0001E7513512D9
:10262C00D8513612090E316409D03BBA07D00A0EC4
:10263C00316E0001E8513512D9513612090E34644D
:10264C0009D03ABA07D00A0E346E0001EB5135129C
:10265C00DC513612090E326408D00A0E326E3BA8D9
:10266C0003D0000E376E01D03768090E33641200A8
:10267C000A0E336E3BA603D0000E386E120038687B
:10268C001200086E800E3E01F86F000EF96F030EFB
:10269C00FA6FFA518F0B6009FA6F070EFB6F3F0E42
:1026AC00FF6F000EFD6FF369040EEC6F1D0EFE6FD5
:1026BC00D78FD7A1FED7600020F04FF0600004F058
:1026CC0050F0600008F051F060000CF052F039014D
:1026DC00A197000E096E4F0E0924D96EDA6A000E0E
:1026EC00DA22DF503E01F16F3901A1A7FDD7A19786
:1026FC00490E0924D96EDA6A000EDA226F009BFBB0
:10270C00DFFF092A050E0964E6D73901550EEF6F74
:10271C00AA0EEF6FEF814F0E046E000E056E066A67
:10272C00076A110E05D0D8900732063205320432F2
:10273C00E82EF9D704503B01FB6F4F0E046E000ED0
:10274C00056E066A076A600014F004F0600018F069
:10275C0005F060001CF006F0076A0450FA6F4F0E8B
:10276C00F96FF10E046E3E0E056E066A076A600084
:10277C0014F004F0600018F005F060001CF006F096
:10278C00076A0450F16FF10EF06F000EF86F060E31
:10279C00F76F000EEF6F010EEE6F2A0EFF6F3F0EFC
:1027AC00FD17FD9BE70EFD17FD51F90B0209FD6F9F
:1027BC00FD91C00EFC6F000EDB6FE60E046E3E0E3C
:1027CC00056E066A076A600014F004F0600018F0E9
:1027DC0005F060001CF006F0076A0450DA6FE60E94
:1027EC00D96F490E046E000E056E066A076A60000A
:1027FC0014F004F0600018F005F060001CF006F016
:10280C00076A0450D16F490ED06F000ED86F010EBD
:10281C00D76F000ECF6F060ECE6F0B0EDF6FDD5134
:10282C003F0B4009DD6FDD9BE70EDD17F90EDD1761
:10283C00DD91C00EDC6FFC8B12001150125C076E28
:10284C00086AD8A00806000E0A6E020E096EA4ECE7
:10285C0017F060001CF01CF0600020F01DF0000E62
:10286C00216E000E206E1350205C226E2150D8A0D9
:10287C002104236E1650D8B404D0226C231ED8B079
:10288C00232A23AE11D0600088F017F060008CF082
:10289C0018F0171E181E174A182A60005CF01AF060
:1028AC00600060F01BF006D0600088F01AF0600049
:1028BC008CF01BF01450176E186A17501A5C1B50D2
:1028CC00800A196E1850800A1958D8B009D02050B7
:1028DC000F24D96E21501020DA6E800EDF6E7ED060
:1028EC001550D8A41BD0600088F001F060008CF06B
:1028FC0002F0000E046E7F0E036E9FEC19F0600068
:10290C0004F007F0600008F008F0600070F009F0C7
:10291C00600074F00AF0A4EC17F03FD023BE22D074
:10292C00235003E12204D8A01DD01450225C016E68
:10293C002350D8A02304026E000E046E7F0E036E8B
:10294C009FEC19F0600004F007F0600008F008F04C
:10295C0014501C5C096E1D50D8A01D040A6EA4EC0A
:10296C0017F01BD014502224016E000E2320026E8F
:10297C00000E046E7F0E036E9FEC19F0600004F0E5
:10298C0007F0600008F008F014501C5C096E1D5034
:10299C00D8A01D040A6EA4EC17F060001CF01EF009
:1029AC00600020F01FF0800E1E26000E1F221FAEAE
:1029BC0004D0000E1F6E000E1E6E1FBE06D01F042C
:1029CC00D8A003D0000E1F6E1E6820500F24D96EA5
:1029DC0021501020DA6E60007BF0DFFF204A212AA4
:1029EC0021BE41D72104D8B012003DD7046E60003F
:1029FC00D4F041F06000D8F042F0000E4924D96EBA
:102A0C00DA6A040EDA22DF50436E000E4A24D96EC5
:102A1C00DA6A050EDA22DF50446E0150D8A407D0D2
:102A2C006000E0F005F06000DCF006F088D060009B
:102A3C0034F105F0600038F106F081D0000E4B2423
:102A4C00D96EDA6A020EDA22DF50456E000E4C2483
:102A5C00D96EDA6A030EDA22DF50466E600014F08B
:102A6C0003F0033A0F0E03160650F00B0310476EDB
:102A7C00000E486E7DD0000E4C24D96EDA6A030E1F
:102A8C00DA22DF50036E033A0F0E0316000E4B24AE
:102A9C00D96EDA6A020EDA22DF50F00B0310456EA3
:102AAC00600018F046F0600014F047F0E1D7000E1B
:102ABC004C24D96EDA6A030EDA22DF50036E033A25
:102ACC000F0E0316000E4B24D96EDA6A020EDA22B0
:102ADC00DF50F00B0310456E600014F003F0033A66
:102AEC000F0E03160650F00B0310466E000EBFD7E8
:102AFC00000E4B24D96EDA6A020EDA22DF50456ED4
:102B0C00000E4C24D96EDA6A030EDA22DF50466EC0
:102B1C00600018F047F0600014F048F029D0000E67
:102B2C004B24D96EDA6A020EDA22DF50456E000EA3
:102B3C004C24D96EDA6A030EDA22DF50D6D7045051
:102B4C00000AD8B47BD7010AD8B495D7030AD8B4F5
:102B5C00AED7010AD8B4CCD7070AD8B4E0D7010A4B
:102B6C00D8B46CD7030AD8B469D7010AD8B466D7DD
:102B7C00410E016E000E026E1200000EAC6E010EC4
:102B8C00AE6E040EAD6E120EAF6E1F0EAB6E000E5F
:102B9C00AA6E800EAC6E0F0E6D6E000E6C6E800EFB
:102BAC006E6E000E3C01756F180E766F050E776F0A
:102BBC00000E786F000E796F080E7A6F020E7B6F25
:102BCC00000E7C6F000E7D6F840E746F000E6B6FA9
:102BDC002C0E6C6F050E6D6F000E6E6F000E6F6F0E
:102BEC00080E706F010E716F000E726F000E736F16
:102BFC00840E6A6F000E616F240E626F180E636F85
:102C0C002B0E646F2C0E656F020E666F040E676FD1
:102C1C00900E686F600E696F820E606F040E576FB6
:102C2C00260E586F2C0E596F250E5A6F000E5B6FC7
:102C3C00020E5C6F000E5D6F140E5E6F000E5F6F08
:102C4C00830E566F050E3D011C6F000E196F000EA2
:102C5C00156F020E166F820E146F12003F011F9F2C
:102C6C003D0117ABFDD7C394000E3F6E000E3E6EB8
:102C7C00000E3D6E000E3C6E010EAA6E010E186F1A
:102C8C001A9F600027F012FD0904D8A40BD0600035
:102C9C001FF0D9FF600023F0DAFFDF50116F800EB8
:102CAC00116F3FD060001FF0D9FF600023F0DAFFF6
:102CBC00DF50116F20EE01F00750D9260850DA22B0
:102CCC00DF50116F0950FE0F106E020E0F6E27D0E1
:102CDC00600040F00AF00B6A0ABE0B06020E0A26D0
:102CEC00000E0B2212510C6E0D6A0A500C5C0D502A
:102CFC00800A0E6E0B50800A0E58D8B010D01050AF
:102D0C00D8A403D0800E116F09D00F500724D96EB0
:102D1C00000E0820DA6EDF50116F0F2A100610AE6D
:102D2C00D7D71AAFFED717ABFED71A9F3F011F8F0D
:102D3C00C3841200000E0F6E040E106E6000F0F2D1
:102D4C0011F06000F4F212F0600024F113F0600056
:102D5C0024F314F060002CF315F00001000EC8B140
:102D6C00010E166E23EC14F0000E0F6E050E106E95
:102D7C006000F8F211F06000FCF212F0600028F133
:102D8C0013F0600024F314F060002CF315F0000134
:102D9C00000EC8B3010E166E23EC14F0000E0F6E6D
:102DAC00020E106E600000F311F0600004F312F0DC
:102DBC0060002CF113F0600028F314F060002CF389
:102DCC0015F00001000EC8B5010E166E23EC14F0C0
:102DDC00000E0F6E030E106E600008F311F0600011
:102DEC000CF312F0600030F113F0600028F314F0D3
:102DFC0060002CF315F00001000EC8B7010E166E22
:102E0C0023EC14F012005E0EF66E340EF76E000E0C
:102E1C00F86E00EE49F010EE0CF009006F00D7FFD1
:102E2C00EEFFE550E150F9E101EE00F110EE00F19A
:102E3C00EE6AE550E150FCE1E250FAE101EE00F0FF
:102E4C0010EE00F1EE6AE550E150FCE1E250FAE1DF
:102E5C0000EE00F310EE00F1EE6AE550E150FCE1FB
:102E6C00E250FAE100EE00F210EE00F1EE6AE550ED
:102E7C00E150FCE1E250FAE100EE00F1240EEE6AC2
:102E8C00E806FDE100EEB6F0360EEE6AE806FDE16E
:102E9C0000EE26F0230EEE6AE806FDE10C0ED56E70
:102EAC00200ED66E000ED76E000EF86E000111EFDC
:102EBC0010F0000E946E010E966E000E976E000EC2
:102ECC00926E500E936E050E956E3901A9919981F3
:102EDC00000EAC6E010EAE6E000EAF6E000EAA6E42
:102EEC007D0EAB6EA495F00EAC6E04D0CBB402D0BC
:102EFC00000EAA6EA4A5FAD7550E3F015F6FC3EC66
:102F0C0015F0800E946E3F011B691C691D69000E43
:102F1C00126F000E136F000E146F880E1E6F430E8F
:102F2C001F6F010E216F000E236F000E226F3901EF
:102F3C00A19F818F918F3F011F8F1200000E0C6E8D
:102F4C000AAE06D0096C0A1ED8B00A2A010E0C6E05
:102F5C0008AE06D0076C081ED8B0082A010E0C1A51
:102F6C00000E0E6E000E0D6E09500A10D8B41CD057
:102F7C00010E0B6E04D0D89009360A360B2A0AAE15
:102F8C00FAD7D8900D360E360950075C0A500858FF
:102F9C00D8A005D00950075E0A50085A0D80D89069
:102FAC000A3209320B2EEDD70C50D8B404D00D6C6C
:102FBC000E1ED8B00E2A600034F007F0600038F016
:102FCC0008F01200000EB86E470EB96E7C0EB76E8C
:102FDC003901A39F800EB86EDD0E016E000E026EDD
:102FEC00000E046E000E036E000E066E0F0E056EC4
:102FFC0039EC19F0CE0E016E000E026E000E046E4E
:10300C00000E036E000E066E0F0E056E39EC19F0F5
:10301C00010E0001DD6F020EDE6F040EDF6F080E75
:10302C00E06F100EE16F010ED36F020ED46F040E21
:10303C00D56F080ED66F100ED76F200ED86F400EBE
:10304C00D96F1200B60E016E000E026E000E046EE9
:10305C00000E036E000E066E180E056E39EC19F09C
:10306C00470E0001B66F430EB76F2B0EB86F320EC2
:10307C00B96F000EBB6F120EBA6F000EBC6FBD693C
:10308C00000EBE6FBF69000EC06FC169000EC26F2B
:10309C00C369020EC46F030EC56F000EC66F010E1E
:1030AC00C76F000EC86F180EC96F180ECA6F010ECD
:1030BC00CB6FCC69000ECD6F1200000ED2BE010E8C
:1030CC00016ED29E550E3A01BF6FAA0EBF6FBF9113
:1030DC000A0ECC6F0A0ED26F040E0A6F090E0B6F1C
:1030EC00550EBF6FAA0EBF6FBF8101A002D0D28E4A
:1030FC0001D0D29EBB68C268E70EC36EC4680F0EC7
:10310C003A01406F000E506F000E606FF00E416F71
:10311C00270E516F6169000E426F040E526F000E44
:10312C00626F1200390191BFA1AF23D0A19FD8903B
:10313C003C367F0E3F01186501D002D0010E01D044
:10314C00000E3C12000E3D6E000E926E3F2A080ED1
:10315C003F18D8A40ED0000E3E24D96EDA6A010EA8
:10316C00DA226000F3F0DFFF000E3C6E000E3F6EC3
:10317C003E2A3901A9A111003E50D8B403D0010E4A
:10318C003D6E02D026EC1AF03901A9911100B60E51
:10319C00096E000E0A6E000E0B6E04000B50092413
:1031AC00D96E000E0A20DA6E0B500AEC1AF0DF6EA4
:1031BC00030E0B18D8A412D0470E0001B6190AE161
:1031CC00430EB71907E12B0EB81904E1320EB919E9
:1031DC00D8B404D028EC18F0B6EC19F00B2A170E62
:1031EC000B64DBD71200000ED26E010E3F01386F5C
:1031FC00000EFC6E550ED46EAA0ED46E000ED46E5C
:10320C00D490080ED56E000ED66E000ED76E550EED
:10321C00D46EAA0ED46E010ED46ED480000EFB6E4A
:10322C00000EFA6E000EF96E12003D50D8A402D0BA
:10323C00000E1200000E036E10D0000E0324D96E87
:10324C00DA6A010EDA2203500124E16E000E02202C
:10325C00E26E6F007FFFE7FF032A3E50035CD8A0AD
:10326C00ECD73E501200600004F007F0600008F04C
:10327C0008F00BD060001FF0D9FF600023F0DAFFDC
:10328C0060000FF0DFFF074A082A0506D8A00606E3
:10329C000528F0E10628D8B41200ECD7000E036E16
:1032AC00CE0E0324D96EDA6A000EDA22410E032404
:1032BC00E16EE26A000EE2226F007FFFE7FF032A55
:1032CC000E0E0364EDD7410E016E000E026E12005D
:1032DC00000E036EDD0E0324D96EDA6A000EDA22BC
:1032EC00410E0324E16EE26A000EE2226F007FFFC2
:1032FC00E7FF032A0E0E0364EDD7410E016E000E9C
:10330C00026E1200000EA06E010EA26E000EA16ED7
:10331C009F68000E9E6E800EA06E3F015E51FC0BEE
:10332C0002095E6F000E7C6E800E7D6E9C0E7E6EB2
:10333C001200015003026F00CCFF05F06F00D0FFAC
:10334C0006F001500402F350062602500302F3501B
:10335C000626600014F001F0600018F002F0120074
:10336C00B60E036E000E046E000E056E055003249F
:10337C00D96E000E0420DA6EDF50016E0550F8ECA9
:10338C0019F0052A170E0564F1D71200000E036E12
:10339C0003500124D96E000E0220DA6ECE0E0324E7
:1033AC00E16EE26A000EE2226F007FFFE7FF032A64
:1033BC000E0E0364EDD71200000E036E03500124B1
:1033CC00D96E000E0220DA6EDD0E0324E16EE26A85
:1033DC00000EE2226F007FFFE7FF032A0E0E03644C
:1033EC00EDD71200026E000E3901E56F60000BF094
:1033FC00E0F9600007F0E3F9E58514EC1AF0390107
:10340C00E5B3FDD7E5951200016E000E3901E56FAD
:10341C00600007F0E0F9E581E3511200D29E550EF1
:10342C003901E66FAA0EE66FE583D28E1200000E0C
:10343C003F6E000E3E6E000E3D6E000E3C6E120096
:10344C00000E3F6E000E3E6E000E3D6E000E3C6E8A
:10345C001200808080800000020300011314016EB2
:10346C00BB88600007F07DFF1200BB98800E7D6E5C
:0A347C001200BB88600E7D6E120086
:020000040020DA
:10000000FF0FFF0FFF0FFF0FFF0FFF0FFF0FFF0F80
:020000040030CA
:0A0000008CFDE7F4ECC7E4FEFFFFFF
:00000001FF
