:040000000DEF00F010
:0400080037EF0FF0CF
:10001800FF008AEF0FF0000E946E010E966E000E30
:10002800976E000E926E500E936E050E956E390106
:10003800A9919981000EAC6E010EAE6E000EAF6EE6
:10004800000EAA6E7D0EAB6EA495F00EAC6E36EF68
:1000580000F0CBB432EF00F034EF00F036EF00F0F0
:10006800000EAA6EA4A53BEF00F03DEF00F02DEFC7
:1000780000F0550E3F015F6F4FEC0DF0800E946E4F
:100088003F011B691C691D69000E126F000E136F7A
:10009800000E146F880E1E6F430E1F6F010E216F26
:1000A800000E236F000E226F3901A19F818F918F5F
:1000B8003F011F8F12003F0E0114046E000E021440
:1000C800056E04500510D8B46CEF00F06EEF00F028
:1000D80070EF00F0AEEF00F0200E025CD8A077EFD2
:1000E80000F079EF00F0AEEF00F0400E0124046E4E
:1000F800000E0220056E0404800E0558D8A087EF74
:1001080000F089EF00F08BEF00F0AEEF00F0000E8A
:10011800F86E0250F76E600007F0F6FF3901E59DB2
:10012800E58F000E076E000E066E090003500624C8
:10013800D96EDA6A6F00D7FFDFFF064A072A075031
:1001480009E1400E065CD8A0ACEF00F0AEEF00F07D
:1001580099EF00F01200000EB86E470EB96E7C0ED3
:10016800B76E3901A39F800EB86E4B0E016E010E5B
:10017800026E000E046E000E036E000E066E0F0E69
:10018800056E05EC02F03C0E016E010E026E000ECB
:10019800046E000E036E000E066E0F0E056E05EC63
:1001A80002F0010E01014B6F020E4C6F040E4D6FF1
:1001B800080E4E6F100E4F6F010E416F020E426F08
:1001C800040E436F080E446F100E456F200E466FE5
:1001D800400E476F12003F0E0114036E000E02140A
:1001E800046E03500410D8B4FCEF00F0FEEF00F0EA
:1001F80000EF01F02DEF01F0200E025CD8A007EF10
:1002080001F009EF01F02DEF01F0400E0124036E1B
:10021800000E0220046E0304800E0458D8A017EFC5
:1002280001F019EF01F01BEF01F02DEF01F0000EC6
:100238003901E56F000EF86E0250F76E600007F0A6
:10024800F6FFE59DE58FE589E585FBEC02F03901D0
:10025800E5951200240E096E010E0A6E000E0B6E53
:1002680004000B500924D96E000E0A20DA6E0B50D8
:10027800E8EC02F0DF6E030E0B18D8A446EF01F08D
:1002880048EF01F05FEF01F0470E010124190FE17B
:10029800430E25190CE12B0E261909E1320E2719F8
:1002A800D8B459EF01F05BEF01F05FEF01F069ECB2
:1002B80001F024EC02F00B2A170E0B6466EF01F034
:1002C80068EF01F034EF01F01200240E016E010E08
:1002D800026E000E046E000E036E000E066E180EFF
:1002E800056E05EC02F0470E0101246F430E256FE1
:1002F8002B0E266F320E276F000E296F100E286FF7
:10030800000E2A6F2B69000E2C6F2D69000E2E6FC0
:100318002F69000E306F3169020E326F030E336F92
:10032800000E346F010E356F000E366F180E376FE2
:10033800180E386F010E396F3A69000E3B6F1200C4
:10034800000ED2BE010E016ED29E550E3A01BF6F4D
:10035800AA0EBF6FBF910A0ECC6F0A0ED26F040EA1
:100368000A6F090E0B6F550EBF6FAA0EBF6FBF81C4
:1003780001B0C1EF01F0C4EF01F0D28EC5EF01F07A
:10038800D29EBB68C268E70EC36EC4680F0E3A01FE
:10039800406F000E506F000E606FF00E416F270E19
:1003A800516F6169000E426F040E526F000E626F4A
:1003B80012003D50D8A4E3EF01F0E5EF01F0E8EFBB
:1003C80001F0000E04EF02F0000E026EFAEF01F0E9
:1003D800000E0224D96EDA6A010EDA2201500224D4
:1003E800E16EE26A6F007FFFE7FF022A3E50025C7F
:1003F800D8A001EF02F003EF02F0ECEF01F03E505D
:10040800120001C007F002C008F016EF02F0600009
:100418001FF0D9FF600023F0DAFF60000FF0DFFF64
:10042800074A082A0506D8A00606052806E1062870
:10043800D8A421EF02F023EF02F00BEF02F0120034
:10044800240E036E010E046E000E056E0550032483
:10045800D96E000E0420DA6EDF50016E0550BCEC38
:1004680002F0052A170E05643CEF02F03EEF02F099
:100478002AEF02F01200000E036E3C0E0324D96E20
:10048800DA6A010EDA220350410FE16EE26A6F0068
:100498007FFFE7FF032A0E0E036455EF02F057EFC4
:1004A80002F041EF02F0410E1200000E036E4B0EF7
:1004B8000324D96EDA6A010EDA220350410FE16E85
:1004C800E26A6F007FFFE7FF032A0E0E03646FEFF7
:1004D80002F071EF02F05BEF02F0410E1200000E25
:1004E800026E01500224D96EDA6A3C0E0224E16ED3
:1004F800E26A010EE2226F007FFFE7FF022A0E0E7A
:10050800026489EF02F08BEF02F075EF02F012003F
:10051800000E026E01500224D96EDA6A4B0E0224D4
:10052800E16EE26A010EE2226F007FFFE7FF022A16
:100538000E0E0264A2EF02F0A4EF02F08EEF02F0BA
:100548001200000EA06E010EA26E000EA16E9F6832
:10055800000E9E6E800EA06E3F015E51FC0B0209DC
:100568005E6F000E7C6E800E7D6E9C0E7E6E12009D
:10057800026E000E3901E56F60000BF0E0F96000D3
:1005880007F0E3F9E585FBEC02F03901E5B3CFEFBD
:1005980002F0D1EF02F0C9EF02F0E5951200015028
:1005A80003026F00CCFF05F06F00D0FF06F001508A
:1005B8000402F350062602500302F350062605C033
:1005C80001F006C002F01200016E000E3901E56F5D
:1005D800600007F0E0F9E581E3511200000E3F6E7C
:1005E800000E3E6E000E3D6E000E3C6E1200D29E56
:1005F800550E3901E66FAA0EE66FE583D28E12001A
:10060800000E3F6E000E3E6E000E3D6E000E3C6EFC
:100618001200808080800000020300011314016E24
:10062800BB88600007F07DFF1200BB88600E7D6EFE
:020638001200AE
:100800000000010E0001F06F000EEC6FA4EC01F08F
:100810006F0028FFF1F06F002CFFF2F06F0030FF47
:10082000F3F0200E026E000E016E600E036E5FECA0
:1008300000F0470E00016019D8A421EF04F023EF67
:1008400004F05EEF04F0430E6119D8A42AEF04F01F
:100850002CEF04F05EEF04F02B0E6219D8A433EFF6
:1008600004F035EF04F05EEF04F0320E6319D8A403
:100870003CEF04F03EEF04F05EEF04F0F1BF43EF15
:1008800004F045EF04F053EF04F0F1BD4AEF04F03B
:100890004CEF04F053EF04F0F3A151EF04F053EFE9
:1008A00004F05EEF04F03F013851D8A45AEF04F091
:1008B0005CEF04F05EEF04F0DAEC0FF0000E3F01A5
:1008C000386F2EEC01F001013B05D8A46AEF04F06B
:1008D0006CEF04F06FEF04F0180E3A01601333C1AF
:1008E00001F034C102F035C103F001013251EBECEB
:1008F0000BF0AFEC00F00FEC00F0A5EC02F0000103
:10090000F1BF85EF04F087EF04F099EF04F0F1BD3B
:100910008CEF04F08EEF04F099EF04F0F1B993EF4F
:1009200004F095EF04F099EF04F069EC01F024EC89
:1009300002F08DEC0EF0800ED26E6F0028FFF1F009
:100940006F002CFFF2F06F0030FFF3F00001F1BFF9
:10095000ACEF04F0AEEF04F0BCEF04F0F1BDB3EF88
:1009600004F0B5EF04F0BCEF04F0F3A3BAEF04F029
:10097000BCEF04F0BDEF04F00400FCEC07F0A00EA7
:10098000016EDDEC01F00001ED6FED51D8B4CBEF5D
:1009900004F0CDEF04F09DEF04F0D29E9AEF07F043
:1009A000090EC66F000EC76F030EC86FC60E056E28
:1009B000030E066EC7EC0CF0F5EF07F001013A519B
:1009C00013EC03F0F7EF04F019EC03F0F7EF04F089
:1009D000FCEC0FF0F7EF04F0A251010AD8B4DEEFFF
:1009E00004F0030AD8B4E4EF04F0E8EF04F03BC1EC
:1009F00001F00001A151C0EC0DF0056E080E066E6D
:100A0000C7EC0CF0F5EF07F0000EC66F800EC76F55
:100A1000800EC86F800EC96F800ECA6F800ECB6FBC
:100A2000000ECC6F000ECD6F000ECE6F000ECF6F9C
:100A3000C60E056E0A0E066EC7EC0CF0F5EF07F059
:100A4000470EA119D8A427EF05F029EF05F051EFC3
:100A500005F0430EA219D8A430EF05F032EF05F0EF
:100A600051EF05F02B0EA319D8A439EF05F03BEF99
:100A700005F051EF05F0320EA419D8A442EF05F0AD
:100A800044EF05F051EF05F0050EED19D8A44BEF3A
:100A900005F04DEF05F051EF05F0000EF06F53EF4C
:100AA00005F0010EF06F000E0001C66FC60E056E58
:100AB000010E066EC7EC0CF0F5EF07F0F051D8A46C
:100AC00064EF05F066EF05F078EF05F0010EC66FF4
:100AD000100EC76F000EC86F100EC96F000ECA6FE0
:100AE000C60E056E050E066EC7EC0CF0F5EF07F0AE
:100AF000C66956EF05F0F051D8A481EF05F083EFF9
:100B000005F078EF05F0030EED6589EF05F08BEF4A
:100B100005F0AFEF05F0A2C0EEF0EF6BEE51EF6F16
:100B2000EE6BA151EE13030EF46FA4EF05F0F45138
:100B3000A00FD96EDA6ADF50016EEE51BCEC02F004
:100B40000001EE4BEF2BF42BED51F45DD8A0ABEF91
:100B500005F0ADEF05F097EF05F053EF05F0FE0E51
:100B6000C66F56EF05F0F051D8A4B9EF05F0BBEF12
:100B700005F078EF05F0040EED19D8A4C2EF05F0EA
:100B8000C4EF05F0AFEF05F0A2C0EEF0EF6BEE5151
:100B9000EF6FEE6BA151EE13A3C0EAF0EA51D8A4B7
:100BA000D4EF05F0D6EF05F0D8EF05F0AFEF05F084
:100BB000000EC66F000EF46FEEEF05F0F4C024F0E7
:100BC000010E24262450C60FD96EDA6AEE51E8ECE5
:100BD00002F0DF6E0001EE4BEF2BF42BEA51F45DD7
:100BE000D8B0F5EF05F0F7EF05F0FFEF05F01F0EB9
:100BF000F465FDEF05F0FFEF05F0DEEF05F0C60E42
:100C0000056EEA29066EC7EC0CF0F5EF07F0FF0061
:100C1000F5EF07F0FD0EC66F56EF05F0F051D8A4C2
:100C200014EF06F016EF06F078EF05F0100EED1950
:100C3000D8A41DEF06F01FEF06F0AFEF05F0A10EF0
:100C4000016E8CEC02F053EF05F0F051D8A42BEFBD
:100C500006F02DEF06F078EF05F0100EED19D8A490
:100C600034EF06F036EF06F0AFEF05F0A10E016E9F
:100C700073EC02F053EF05F0F051D8A442EF06F008
:100C800044EF06F078EF05F059EC02F00001C46F74
:100C9000000EC66F000EF46F0E0EF46552EF06F0F4
:100CA00054EF06F056EF06F068EF06F0C451F42555
:100CB000D96EDA6AF4C024F0010E24262450C60F3F
:100CC000E16EE26A6F007FFFE7FFF42B4CEF06F066
:100CD000C60E056E100E066EC7EC0CF0F5EF07F0B1
:100CE000F051D8A476EF06F078EF06F078EF05F033
:100CF0003FEC02F00001C56F000EC66F000EF46FEE
:100D00000E0EF46586EF06F088EF06F08AEF06F027
:100D100068EF06F0C551F425D96EDA6AF4C024F004
:100D2000010E24262450C60FE16EE26A6F007FFF99
:100D3000E7FFF42B80EF06F0F051D8A4A2EF06F005
:100D4000A4EF06F078EF05F08DEC0EF053EF05F010
:100D5000F051D8A4AEEF06F0B0EF06F078EF05F052
:100D6000000EEC6F000EC66F56EF05F0F051D8A4E0
:100D7000BCEF06F0BEEF06F078EF05F0010EF46F61
:100D8000D1EF06F0F451A00FD96EDA6AEC51600F82
:100D9000E16EE26A6F007FFFE7FFEC2B3F0EEC177E
:100DA000F42BED51F45DD8A0D8EF06F0DAEF06F0A1
:100DB000C2EF06F053EF05F0F051D8A4E2EF06F0D1
:100DC000E4EF06F078EF05F0020EED19D8A4EBEF92
:100DD00006F0EDEF06F0AFEF05F0A1C0EBF0EB5140
:100DE000D8A4F5EF06F0F7EF06F0F9EF06F0AFEF55
:100DF00005F0000EC66F000EF46F12EF07F0EC5115
:100E0000600FD96EDA6AF4C024F0010E2426245053
:100E1000C60FE16EE26A6F007FFFE7FFEC2B3F0E2B
:100E2000EC17F42BEB51F45DD8B019EF07F01BEF82
:100E300007F023EF07F01F0EF46521EF07F023EF13
:100E400007F0FFEF06F0C60E056EEB29066EC7EC45
:100E50000CF0F5EF07F0F051D8A431EF07F033EFC5
:100E600007F078EF05F0030EED19D8A43AEF07F07C
:100E70003CEF07F0AFEF05F0A2C0EEF0EF6BEE51E4
:100E8000EF6FEE6BA151EE133F0EEE15246E000EC8
:100E9000EF15256E24502510D8B451EF07F053EF0D
:100EA00007F055EF07F0AFEF05F0EEC005F0EFC02B
:100EB00006F0600E076EE2EC0EF053EF05F0F05115
:100EC000D8A465EF07F067EF07F078EF05F0030EA1
:100ED000ED19D8A46EEF07F070EF07F0AFEF05F053
:100EE000A2C0EEF0EF6BEE51EF6FEE6BA151EE137F
:100EF000EEC001F0EFC002F0600E036E5FEC00F098
:100F000053EF05F0F051D8A488EF07F08AEF07F00F
:100F100078EF05F0000EC66FC60E056E010E066E68
:100F2000C7EC0CF0DAEC0FF0F5EF07F0F2EC02F0A2
:100F3000F5EF07F0A051000AD8B4D0EF04F0100A82
:100F4000D8B420EF05F0010AD8B45EEF05F0030A2B
:100F5000D8B47BEF05F0010AD8B4B3EF05F0070A67
:100F6000D8B407EF06F0010AD8B40AEF06F0030A76
:100F7000D8B40EEF06F0010AD8B425EF06F00F0A38
:100F8000D8B43CEF06F0010AD8B470EF06F0390A85
:100F9000D8B49CEF06F0600AD8B4ECEF04F0010A74
:100FA000D8B404EF05F0030AD8B404EF05F0320A10
:100FB000D8B4A8EF06F0010AD8B4B6EF06F0030AD9
:100FC000D8B4DCEF06F0010AD8B42BEF07F0070A1B
:100FD000D8B45FEF07F0010AD8B482EF07F08A0AAD
:100FE000D8B4D0EF04F096EF07F0F2EC02F0D28E16
:100FF0009DEF04F00DEF00F06F0028FF01F06F008F
:101000002CFF02F06F0030FF03F039500118056E1D
:101010003A500218066E3B500318076E01C039F0B3
:1010200002C03AF003C03BF005A819EF08F01BEF2F
:1010300008F01DEF08F0000E266E05AA22EF08F05A
:1010400024EF08F026EF08F0000E276E05AE2BEF18
:1010500008F02DEF08F02FEF08F0000E286E05AC19
:1010600034EF08F036EF08F038EF08F0000E296E84
:1010700007A23DEF08F03FEF08F041EF08F0000E47
:101080002A6E06A246EF08F048EF08F04AEF08F093
:10109000000E2B6E06A04FEF08F051EF08F053EF53
:1010A00008F0000E2C6E07AE58EF08F05AEF08F06B
:1010B0005CEF08F0000E2D6E07AC61EF08F063EFF7
:1010C00008F065EF08F0000E2E6E07A06AEF08F03A
:1010D0006CEF08F06EEF08F0000E2F6E07A473EFB0
:1010E00008F075EF08F077EF08F0000E306E07AAF1
:1010F0007CEF08F07EEF08F080EF08F0000E316E14
:1011000007A885EF08F087EF08F089EF08F0000ED8
:10111000326E07A68EEF08F090EF08F092EF08F01D
:10112000000E336E06AA97EF08F099EF08F09BEFD8
:1011300008F0000E346E3901A3BFA1EF08F0A3EF51
:1011400008F0A5EF08F0EEEF0AF0A39F000E046E82
:101150000450260FD96EDA6ADF2A042A0E0E0464C0
:10116000B4EF08F0B6EF08F0A8EF08F0000E356E07
:10117000800E366E090E2664C0EF08F0C2EF08F04C
:10118000CEEF08F039B8C7EF08F0C9EF08F0CEEF9E
:1011900008F00A0E266E01014B513512090E266425
:1011A000D4EF08F0D6EF08F0E2EF08F039B8DBEF43
:1011B00008F0DDEF08F0E2EF08F00A0E266E0101FC
:1011C0003C513612090E2764E8EF08F0EAEF08F008
:1011D000F6EF08F039BAEFEF08F0F1EF08F0F6EFAC
:1011E00008F00A0E276E01014C513512090E2764D2
:1011F000FCEF08F0FEEF08F00AEF09F039BA03EF50
:1012000009F005EF09F00AEF09F00A0E276E010157
:101210003D513612090E286410EF09F012EF09F063
:101220001EEF09F039BE17EF09F019EF09F01EEFB4
:1012300009F00A0E286E01014D513512090E28647D
:1012400024EF09F026EF09F032EF09F039BE2BEF59
:1012500009F02DEF09F032EF09F00A0E286E0101B6
:101260003E513612090E296438EF09F03AEF09F0C1
:1012700046EF09F039BC3FEF09F041EF09F046EFC6
:1012800009F00A0E296E01014E513512090E29642A
:101290004CEF09F04EEF09F05AEF09F039BC53EF6B
:1012A00009F055EF09F05AEF09F00A0E296E010115
:1012B0003F513612090E2A6460EF09F062EF09F01F
:1012C0006EEF09F03BB267EF09F069EF09F06EEFDE
:1012D00009F00A0E2A6E01014F513512090E2A64D7
:1012E00074EF09F076EF09F082EF09F03BB27BEF83
:1012F00009F07DEF09F082EF09F00A0E2A6E010174
:1013000040513612090E2B6488EF09F08AEF09F07C
:1013100096EF09F03AB28FEF09F091EF09F096EFEE
:1013200009F00A0E2B6E010150513512090E2B6483
:101330009CEF09F09EEF09F0AAEF09F03AB2A3EF93
:1013400009F0A5EF09F0AAEF09F00A0E2B6E0101D2
:1013500041513612090E2C64B0EF09F0B2EF09F0DA
:10136000BEEF09F03AB0B7EF09F0B9EF09F0BEEF00
:1013700009F00A0E2C6E010151513512090E2C6430
:10138000C4EF09F0C6EF09F0D2EF09F03AB0CBEFA5
:1013900009F0CDEF09F0D2EF09F00A0E2C6E010131
:1013A00042513612090E2D64D8EF09F0DAEF09F038
:1013B000E6EF09F03BBEDFEF09F0E1EF09F0E6EF01
:1013C00009F00A0E2D6E010152513512090E2D64DD
:1013D000ECEF09F0EEEF09F0FAEF09F03BBEF3EFA6
:1013E00009F0F5EF09F0FAEF09F00A0E2D6E010190
:1013F00043513612090E2E6400EF0AF002EF0AF094
:101400000EEF0AF03BBC07EF0AF009EF0AF00EEF0F
:101410000AF00A0E2E6E010153513512090E2E6488
:1014200014EF0AF016EF0AF022EF0AF03BBC1BEFB4
:101430000AF01DEF0AF022EF0AF00A0E2E6E0101EB
:1014400044513612090E2F6428EF0AF02AEF0AF0F1
:1014500036EF0AF03BB02FEF0AF031EF0AF036EF2B
:101460000AF00A0E2F6E010154513512090E2F6435
:101470003CEF0AF03EEF0AF04AEF0AF03BB043EFD0
:101480000AF045EF0AF04AEF0AF00A0E2F6E01014A
:1014900045513612090E306450EF0AF052EF0AF04F
:1014A0005EEF0AF03BB457EF0AF059EF0AF05EEF37
:1014B0000AF00A0E306E010155513512090E3064E2
:1014C00064EF0AF066EF0AF072EF0AF03BB46BEFDC
:1014D0000AF06DEF0AF072EF0AF00A0E306E0101A9
:1014E00046513612090E316478EF0AF07AEF0AF0AD
:1014F00086EF0AF03BBA7FEF0AF081EF0AF086EF41
:101500000AF00A0E316E010156513512090E31648E
:101510008CEF0AF08EEF0AF09AEF0AF03BBA93EFE5
:101520000AF095EF0AF09AEF0AF00A0E316E010107
:1015300047513612090E3464A0EF0AF0A2EF0AF008
:10154000AEEF0AF03ABAA7EF0AF0A9EF0AF0AEEF51
:101550000AF00A0E346E010159513512090E346435
:10156000B4EF0AF0B6EF0AF0C2EF0AF03ABABBEFF6
:101570000AF0BDEF0AF0C2EF0AF00A0E346E010164
:101580004A513612090E3264C8EF0AF0CAEF0AF067
:10159000D8EF0AF00A0E326E3BA8D1EF0AF0D3EF73
:1015A0000AF0D7EF0AF0000E376ED8EF0AF037686E
:1015B000090E3364DEEF0AF0E0EF0AF0EEEF0AF016
:1015C0000A0E336E3BA6E7EF0AF0E9EF0AF0EDEF03
:1015D0000AF0000E386EEEEF0AF038681200115073
:1015E000125C076E086AD8A00806000E0A6E020E8A
:1015F000096E2BEC0EF007C01CF008C01DF0000EA9
:10160000216E000E206E1350205C226E2150D8A057
:101610002104236E1650D8B410EF0BF012EF0BF02C
:1016200016EF0BF0226C231ED8B0232A23BE1DEF29
:101630000BF01BEF0BF02BEF0BF022C017F023C0C9
:1016400018F0171E181E174A182A17C01AF018C0CB
:101650001BF02FEF0BF022C01AF023C01BF0145028
:10166000176E186A17501A5C1B50800A196E1850B2
:10167000800A1958D8B03FEF0BF041EF0BF04BEF59
:101680000BF020500F24D96E21501020DA6E800EFE
:10169000DF6EDDEF0BF01550D8A451EF0BF053EFD8
:1016A0000BF06DEF0BF022C001F023C002F0000E32
:1016B000046E7F0E036ED3EC02F001C007F002C08F
:1016C00008F01CC009F01DC00AF02BEC0EF007C09A
:1016D0001EF008C01FF0B7EF0BF023BE78EF0BF041
:1016E000235008E12204D8A078EF0BF07AEF0BF03A
:1016F0009AEF0BF01450225C016E2350D8A0230403
:10170000026E000E046E7F0E036ED3EC02F001C079
:1017100007F002C008F014501C5C096E1D50D8A0E0
:101720001D040A6E2BEC0EF007C01EF008C01FF05F
:10173000B7EF0BF014502224016E000E2320026E2E
:10174000000E046E7F0E036ED3EC02F001C007F0B2
:1017500002C008F014501C5C096E1D50D8A01D0476
:101760000A6E2BEC0EF007C01EF008C01FF0800EB2
:101770001E26000E1F221FBEC2EF0BF0C0EF0BF0A3
:10178000C6EF0BF0000E1F6E000E1E6E1FBECFEFD9
:101790000BF01F04D8A0CFEF0BF0D1EF0BF0D4EF7C
:1017A0000BF0000E1F6E1E6820500F24D96E2150C2
:1017B0001020DA6E60007BF0DFFF204A212A21BE74
:1017C000E8EF0BF02104D8A0E8EF0BF0EAEF0BF004
:1017D00003EF0BF01200096E800E3E01F86F000E51
:1017E000F96F030EFA6FFA518F0B6009FA6F070E4B
:1017F000FB6F3F0EFF6F000EFD6FF369040EEC6F81
:101800001D0EFE6FD78FD7A108EF0CF00AEF0CF07A
:1018100003EF0CF009C04FF001C050F002C051F0CE
:1018200003C052F03901A197000E0A6E0A504F0F03
:10183000D96EDA6ADF503E01F16F3901A1A723EFBB
:101840000CF025EF0CF01DEF0CF0A1970A50490F9A
:10185000D96EDA6A6F009BFBDFFF0A2A050E0A6465
:1018600034EF0CF036EF0CF016EF0CF03901550E9A
:10187000EF6FAA0EEF6FEF814F0E046E04C005F0FC
:10188000066A076A086A110E4BEF0CF0D89008320E
:10189000073206320532E82E46EF0CF005503B01C8
:1018A000FB6F4F0E046E04C005F0066A076A086AF3
:1018B00006C005F007C006F008C007F0086A05502A
:1018C000FA6F4F0EF96FF10E046E3E0E056E066A4A
:1018D000076A05C004F006C005F007C006F0076AF5
:1018E0000450F16FF10EF06F000EF86F060EF76FF7
:1018F000000EEF6F010EEE6F2A0EFF6F3F0EFD1709
:10190000FD9BE70EFD17FD51F90B0209FD6FFD91DF
:10191000C00EFC6F000EDB6FE60E046E3E0E056E11
:10192000066A076A05C004F006C005F007C006F0A5
:10193000076A0450DA6FE60ED96F490E046E04C0D0
:1019400005F0066A076A086A06C005F007C006F0D7
:1019500008C007F0086A0550D16F490ED06F000E1D
:10196000D86F010ED76F000ECF6F060ECE6F0B0E25
:10197000DF6FDD513F0B4009DD6FDD9BE70EDD17AB
:10198000F90EDD17DD91C00EDC6FFC8B12003F01FC
:101990001F9F3D0117ABCFEF0CF0D1EF0CF0C9EF5B
:1019A0000CF0C394000E3F6E000E3E6E000E3D6EB6
:1019B000000E3C6E010EAA6E010E186F1A9F600099
:1019C0001BF012FD0604D8A4E8EF0CF0EAEF0CF0CF
:1019D000F3EF0CF00550D96EDA6ADF50116F800E0C
:1019E000116F3CEF0DF00550D96EDA6ADF50116FC0
:1019F0000550D96EDA6A010ED926DF50116F0650F4
:101A0000FE0F0D6E020E0C6E35EF0DF00DC007F0DF
:101A1000086A07BE0806020E0726000E08221251A9
:101A2000096E0A6A0750095C0A50800A0B6E08505A
:101A3000800A0B58D8B01FEF0DF021EF0DF035EFF5
:101A40000DF00D50D8A427EF0DF029EF0DF02DEF7C
:101A50000DF0800E116F34EF0DF005500C24D96E8F
:101A6000DA6ADF50116F0C2A0D060DBE3CEF0DF047
:101A70003AEF0DF006EF0DF01AAF41EF0DF043EF26
:101A80000DF03CEF0DF017AB48EF0DF04AEF0DF005
:101A900043EF0DF01A9F3F011F8FC3841200000E09
:101AA000AC6E010EAE6E040EAD6E120EAF6E1F0E5A
:101AB000AB6E000EAA6E800EAC6E0F0E6D6E000E39
:101AC0006C6E800E6E6E000E3C01756F180E766F98
:101AD000050E776F000E786F000E796F080E7A6F23
:101AE000020E7B6F000E7C6F000E7D6F840E746F94
:101AF000000E6B6F2C0E6C6F050E6D6F000E6E6F0F
:101B0000000E6F6F080E706F010E716F000E726F16
:101B1000000E736F840E6A6F000E616F240E626F89
:101B2000180E636F2B0E646F2C0E656F020E666FBE
:101B3000040E676F900E686F600E696F820E606FA3
:101B4000040E576F260E586F2C0E596F250E5A6FC4
:101B5000000E5B6F020E5C6F000E5D6F140E5E6F09
:101B6000000E5F6F830E566F050E3D011C6F000E59
:101B7000196F000E156F020E166F820E146F120091
:101B8000046E35C041F036C042F0000E4924D96ED3
:101B9000DA6A040EDA22DF50436E000E4A24D96E50
:101BA000DA6A050EDA22DF50446E06EF0EF0000E00
:101BB0004B24D96EDA6A020EDA22DF50456E000E2F
:101BC0004C24D96EDA6A030EDA22DF50466E000E1C
:101BD000476E000E486E29EF0EF0000E4C24D96EB1
:101BE000DA6A030EDA22DF50036E033A0F0E031691
:101BF000000E4B24D96EDA6A020EDA22DF50F00BA7
:101C00000310456E000E466EE7EF0DF00450000A1B
:101C1000D8B4D7EF0DF0010AD8B4EDEF0DF0030AF8
:101C2000D8B4EDEF0DF0010AD8B4D7EF0DF0070AE4
:101C3000D8B4D7EF0DF0010AD8B4D7EF0DF0030AEE
:101C4000D8B4D7EF0DF0010AD8B4D7EF0DF029EFD3
:101C50000EF0410E1200000E0C6E0ABE34EF0EF0B4
:101C600032EF0EF03AEF0EF0096C0A1ED8B00A2AD5
:101C7000010E0C6E08BE41EF0EF03FEF0EF047EF85
:101C80000EF0076C081ED8B0082A010E0C1A000EC0
:101C90000E6E000E0D6E09500A10D8B452EF0EF001
:101CA00054EF0EF07CEF0EF0010E0B6E5CEF0EF0B9
:101CB000D89009360A360B2A0AAE61EF0EF063EFB0
:101CC0000EF058EF0EF0D8900D360E360950075C26
:101CD0000A500858D8A06FEF0EF071EF0EF076EFB3
:101CE0000EF00950075E0A50085A0D80D8900A324B
:101CF00009320B2E63EF0EF00C50D8B482EF0EF0C9
:101D000084EF0EF088EF0EF00D6C0E1ED8B00E2A88
:101D10000DC007F00EC008F01200000E0F6E040E8A
:101D2000106E2AC111F02BC112F049C013F037C157
:101D300014F039C115F00101000E36B1010E166E16
:101D4000EFEC0AF0000E0F6E050E106E2CC111F0B4
:101D50002DC112F04AC013F037C114F039C115F08B
:101D60000101000E36B3010E166EEFEC0AF0000E04
:101D70000F6E020E106E2EC111F02FC112F04BC06B
:101D800013F038C114F039C115F00101000E36B559
:101D9000010E166EEFEC0AF0000E0F6E030E106EC1
:101DA00030C111F031C112F04CC013F038C114F041
:101DB00039C115F00101000E36B7010E166EEFECB9
:101DC0000AF012003F0E0514086E000E0614096E8C
:101DD00008500910D8B4EFEF0EF0F1EF0EF0F3EF6A
:101DE0000EF036EF0FF0200E065CD8A0FAEF0EF0E2
:101DF000FCEF0EF036EF0FF0400E0524086E000EDB
:101E00000620096E0804800E0958D8A00AEF0FF0CA
:101E10000CEF0FF00EEF0FF036EF0FF005C001F0F2
:101E200006C002F0EFEC00F00A00000E0B6E000E90
:101E30000A6E07500A24D96EDA6ADF50F56E0F0079
:101E40000A4A0B2A0B5009E1400E0A5CD8A02BEF7E
:101E50000FF02DEF0FF019EF0FF03901E59DE58F31
:101E6000E585E599FBEC02F03901E59512003901B1
:101E700091AF3DEF0FF03FEF0FF071EF0FF0A1AF1B
:101E800044EF0FF046EF0FF071EF0FF0A19FD890E5
:101E90003C367F0E3F01186550EF0FF053EF0FF007
:101EA000010E54EF0FF0000E3C12000E3D6E000EBE
:101EB000926E3F2A080E3F18D8A461EF0FF063EF2F
:101EC0000FF071EF0FF0000E3E24D96EDA6A010EAA
:101ED000DA226000F3F0DFFF000E3C6E000E3F6E72
:101EE0003E2A3901A9A177EF0FF079EF0FF089EFC2
:101EF0000FF03E50D8B47FEF0FF081EF0FF085EF79
:101F00000FF0010E3D6E87EF0FF004EC03F0390186
:101F1000A99111001A0EF66E060EF76E000EF86EFD
:101F200000EE49F010EE0CF009006F00D7FFEEFF55
:101F3000E550E150F9E101EE00F110EE00F1EE6A3A
:101F4000E550E150FCE1E250FAE101EE00F010EE64
:101F500000F1EE6AE550E150FCE1E250FAE100EEFA
:101F600000F310EE00F1EE6AE550E150FCE1E250C2
:101F7000FAE100EE00F210EE00F1EE6AE550E150F9
:101F8000FCE1E250FAE100EE00F15A0EEE6AE806DA
:101F9000FDE100EE26F0230EEE6AE806FDE1080EF4
:101FA000D56E000ED66E000ED76E000EF86E0001D4
:101FB00001EF04F0000ED26E010E3F01386F000EEB
:101FC000FC6E550ED46EAA0ED46E000ED46ED49054
:101FD0000C0ED56E200ED66E000ED76E550ED46E3A
:101FE000AA0ED46E010ED46ED480000EFB6E200EAD
:101FF000FA6E040EF96E1200BB98800E7D6E120010
:0820000047432B320FEF10F0F3
:04200C00B8EF18F021
:10201C00FF0036EF16F00000010E0001AF6F000E4E
:10202C00846F82EC18F06F0028FFB0F06F002CFF6B
:10203C00B1F06F0030FFB2F047EC18F00001CB05A7
:10204C00D8A405D0180E3A016013E70E6117C3C06F
:10205C0025F0C4C026F0C5C027F00001C25104EC25
:10206C0013F00BEC18F002EC17F02BEC19F000014C
:10207C00B0AFB0BD06D0B0B904D0CCEC17F093EC37
:10208C0019F0C9EC15F0800ED26E6F0028FFB0F07D
:10209C006F002CFFB1F06F0030FFB2F00001B0AF59
:1020AC00B0BD01D0B2B30400EAEC11F0600E256EA5
:1020BC000FEC19F00001AE6FAE51D8A453D1E5D797
:1020CC00090E856F000E866F030E876F850E2B6EC3
:1020DC00030E2C6EA0EC16F0D8D7CA510BEC1AF0EC
:1020EC000ED0DBEC19F00BD019EC1AF008D06251C1
:1020FC00010AD8B4F2D7030AD8B4F3D7F5D7CBC0BA
:10210C0025F00001615194EC14F02B6E080E2C6E2E
:10211C00A0EC16F0BAD7000E856F800E866F800E7D
:10212C00876F800E886F800E896F800E8A6F000E0D
:10213C008B6F000E8C6F000E8D6F000E8E6F850EE8
:10214C002B6E0A0E2C6EA0EC16F09FD7470E611961
:10215C00D8A412D0430E6219D8A40ED02B0E63193A
:10216C00D8A40AD0320E6419D8A406D0050EAE1924
:10217C00D8A402D0000E01D0010EAF6F000E0001EA
:10218C00856F850E2B6E010E2C6EA0EC16F07DD794
:10219C00AF51D8A411D0020E856F140E866F000EAD
:1021AC00876F100E886F000E896F850E2B6E050ED3
:1021BC002C6EA0EC16F069D78569E3D7AF51D8A483
:1021CC00FBD7030EAE651DD062C0ACF0AD6BAC514D
:1021DC00AD6FAC6B6151AC13030EB36F0DD0B3513B
:1021EC00600FD96EDA6ADF50256EAC51A5EC19F090
:1021FC000001AC4BAD2BB32BAE51B35DD8B0BED7F9
:10220C00EED7FE0EBDD7AF51D8A4D6D7040EAE195B
:10221C00D8A4F7D762C0ACF0AD6BAC51AD6FAC6B62
:10222C006151AC1363C0ABF0AB51D8B4EAD7000E1C
:10223C00856F000EB36F10D0B3C048F0010E482666
:10224C004850850FD96EDA6AAC51E6EC19F0DF6EA6
:10225C000001AC4BAD2BB32BAB51B35DD8B003D05D
:10226C001F0EB365E9D7850E2B6EAB292C6EA0EC37
:10227C0016F00BD7FF0009D7AF51D8A49DD7000E8D
:10228C00856F850E2B6E010E2C6EA0EC16F0EDEC0E
:10229C0018F0FBD6AF51D8A48FD7100EAE19D8A416
:1022AC00B0D7610E256EC9EC19F068D7AF51D8A420
:1022BC0083D7100EAE19D8A4A4D7610E256EB7EC37
:1022CC0019F05CD7AF51D8A477D780EC19F0000186
:1022DC00A96F000E856F000EB36F0E0EB36501D0A3
:1022EC0011D0A951B325D96EDA6AB3C048F0010EEA
:1022FC0048264850850FE16EE26A6F007FFFE7FFCA
:10230C00B32BEBD7850E2B6E100E2C6EA0EC16F0AB
:10231C00BCD6AF51D8A450D76DEC19F00001AA6F00
:10232C00000E856F000EB36F0E0EB36501D0EAD7A9
:10233C00AA51B325D96EDA6AB3C048F0010E48260B
:10234C004850850FE16EE26A6F007FFFE7FFB32B09
:10235C00EBD7AF51D8A430D7C9EC15F00FD7F9ECA7
:10236C0019F093D66051000AD8B4AAD6100AD8B482
:10237C00EDD6010AD8B40CD7030AD8B41FD7010A7A
:10238C00D8B441D7070AD8B475D7010AD8B474D7D2
:10239C00030AD8B47FD7010AD8B488D70F0AD8B4A7
:1023AC0091D7010AD8B4B5D7390AD8B4D2D7600AB4
:1023BC00D8B49DD6010AD8B4AED6030AD8B4ABD6DD
:1023CC00BD0AD8B47DD6CBD76F0028FF25F06F009F
:1023DC002CFF26F06F0030FF27F014502518296EC3
:1023EC00155026182A6E165027182B6E25C014F07F
:1023FC0026C015F027C016F029A802D0000E016ED9
:10240C0029AA02D0000E026E29AE02D0000E036E75
:10241C0029AC02D0000E046E2BA202D0000E056E69
:10242C002AA202D0000E066E2AA002D0000E076E61
:10243C002BAE02D0000E086E2BAC02D0000E096E33
:10244C002BA002D0000E0A6E2BA402D0000E0B6E35
:10245C002BAA02D0000E0C6E2BA802D0000E0D6E13
:10246C002BA602D0000E0E6E2AAA02D0000E0F6E02
:10247C003901A3AF1200A39F000E286E2850010F44
:10248C00D96EDA6ADF2A282A0E0E2864F7D7000ED6
:10249C00106E800E116E090E016409D014B807D0AD
:1024AC000A0E016E0001DF511012D0511112090EEB
:1024BC00026409D014BA07D00A0E026E0001E05172
:1024CC001012D1511112090E036409D014BE07D099
:1024DC000A0E036E0001E1511012D2511112090EB5
:1024EC00046409D014BC07D00A0E046E0001E2513A
:1024FC001012D3511112090E056409D016B207D06F
:10250C000A0E056E0001E3511012D4511112090E7E
:10251C00066409D015B207D00A0E066E0001E4510C
:10252C001012D5511112090E076409D015B007D03D
:10253C000A0E076E0001E5511012D6511112090E48
:10254C00086409D016BE07D00A0E086E0001E651C9
:10255C001012D7511112090E096409D016BC07D0FC
:10256C000A0E096E0001E7511012D8511112090E12
:10257C000A6409D016B007D00A0E0A6E0001E851A1
:10258C001012D9511112090E0B6409D016B407D0D0
:10259C000A0E0B6E0001E9511012DA511112090EDC
:1025AC000C6409D016BA07D00A0E0C6E0001EA5161
:1025BC001012DB511112090E0F6409D015BA07D095
:1025CC000A0E0F6E0001ED511012DE511112090EA0
:1025DC000D6408D00A0E0D6E16A803D0000E126EF4
:1025EC0001D01268090E0E6412000A0E0E6E16A6A9
:1025FC0003D0000E136E1200136812002D6E800EA5
:10260C003E01F86F000EF96F030EFA6FFA518F0B43
:10261C006009FA6F070EFB6F3F0EFF6F000EFD6F28
:10262C00F369040EEC6F1D0EFE6FD78FD7A1FED78A
:10263C002DC04FF025C050F026C051F027C052F0ED
:10264C003901A197000E2E6E2E504F0FD96EDA6AFB
:10265C00DF503E01F16F3901A1A7FDD7A1972E5094
:10266C00490FD96EDA6A6F009BFBDFFF2E2A050E2D
:10267C002E64EAD73901550EEF6FAA0EEF6FEF817A
:10268C004F0E286E28C029F02A6A2B6A2C6A110E6C
:10269C0005D0D8902C322B322A322932E82EF9D799
:1026AC0029503B01FB6F4F0E286E28C029F02A6A77
:1026BC002B6A2C6A2AC029F02BC02AF02CC02BF0D4
:1026CC002C6A2950FA6F4F0EF96FF10E286E3E0EE0
:1026DC00296E2A6A2B6A29C028F02AC029F02BC03F
:1026EC002AF02B6A2850F16FF10EF06F000EF86F84
:1026FC00060EF76F000EEF6F010EEE6F2A0EFF6FD6
:10270C003F0EFD17FD9BE70EFD17FD51F90B02095E
:10271C00FD6FFD91C00EFC6F000EDB6FE60E286E98
:10272C003E0E296E2A6A2B6A29C028F02AC029F08D
:10273C002BC02AF02B6A2850DA6FE60ED96F490E9F
:10274C00286E28C029F02A6A2B6A2C6A2AC029F024
:10275C002BC02AF02CC02BF02C6A2950D16F490EBB
:10276C00D06F000ED86F010ED76F000ECF6F060E14
:10277C00CE6F0B0EDF6FDD513F0B4009DD6FDD9B24
:10278C00E70EDD17F90EDD17DD91C00EDC6FFC8B4B
:10279C0012003550365C2B6E2C6AD8A02C06000E1D
:1027AC002E6E020E2D6E8AEC17F02BC040F02CC052
:1027BC0041F0000E456E000E446E3750445C466E80
:1027CC004550D8A04504476E3A50D8B404D0466C56
:1027DC00471ED8B0472A47AE0DD046C03BF047C085
:1027EC003CF03B1E3C1E3B4A3C2A3BC03EF03CC0EE
:1027FC003FF004D046C03EF047C03FF038503B6E2F
:10280C003C6A3B503E5C3F50800A3D6E3C50800A17
:10281C003D58D8B009D044503324D96E455034209B
:10282C00DA6E800EDF6E72D03950D8A415D046C047
:10283C0025F047C026F0000E286E7F0E276E45EC63
:10284C0019F025C02BF026C02CF040C02DF041C053
:10285C002EF08AEC17F03BD047BE20D0475003E156
:10286C004604D8A01BD03850465C256E4750D8A0E3
:10287C004704266E000E286E7F0E276E45EC19F06D
:10288C0025C02BF026C02CF03850405C2D6E4150EA
:10289C00D8A041042E6E8AEC17F019D0385046247B
:1028AC00256E000E4720266E000E286E7F0E276EBA
:1028BC0045EC19F025C02BF026C02CF03850405CAC
:1028CC002D6E4150D8A041042E6E8AEC17F02BC00F
:1028DC0042F02CC043F0800E4226000E432243AE41
:1028EC0004D0000E436E000E426E43BE06D043046D
:1028FC00D8A003D0000E436E426844503324D96EE6
:10290C0045503420DA6E60000BF1DFFF444A452A53
:10291C0045BE53D74504D8B012004FD7286E10C00F
:10292C001DF011C01EF0000E4924D96EDA6A040E97
:10293C00DA22DF501F6E000E4A24D96EDA6A050EB9
:10294C00DA22DF50206E2550D8A405D013C029F010
:10295C0012C02AF08CD0000E4D24D96EDA6A070E04
:10296C00DA22DF50296E000E4E24D96EDA6A060E7A
:10297C00DA22DF502A6E7BD0000E4B24D96EDA6A35
:10298C00020EDA22DF50216E000E4C24D96EDA6A68
:10299C00030EDA22DF50226E29C027F0273A0F0EE1
:1029AC0027162A50F00B2710236E000E246E78D0B9
:1029BC00000E4C24D96EDA6A030EDA22DF50276E31
:1029CC00273A0F0E2716000E4B24D96EDA6A020E28
:1029DC00DA22DF50F00B2710216E2AC022F029C01A
:1029EC0023F0E3D7000E4C24D96EDA6A030EDA22F8
:1029FC00DF50276E273A0F0E2716000E4B24D96E88
:102A0C00DA6A020EDA22DF50F00B2710216E29C091
:102A1C0027F0273A0F0E27162A50F00B2710226E9C
:102A2C00000EC2D7000E4B24D96EDA6A020EDA22DF
:102A3C00DF50216E000E4C24D96EDA6A030EDA22B6
:102A4C00DF50226E2AC023F029C024F029D0000EBA
:102A5C004B24D96EDA6A020EDA22DF50216E000E98
:102A6C004C24D96EDA6A030EDA22DF50D8D72850FC
:102A7C00000AD8B481D7010AD8B49AD7030AD8B4BB
:102A8C00B1D7010AD8B4CED7070AD8B4E0D7010A17
:102A9C00D8B472D7030AD8B46FD7010AD8B46CD79C
:102AAC001D0E1200000EAC6E010EAE6E040EAD6E5D
:102ABC00120EAF6E1F0EAB6E000EAA6E800EAC6EB9
:102ACC000F0E6D6E000E6C6E800E6E6E000E3C0165
:102ADC00756F180E766F050E776F000E786F000EFF
:102AEC00796F080E7A6F020E7B6F000E7C6F000EF2
:102AFC007D6F840E746F000E6B6F2C0E6C6F050E59
:102B0C006D6F000E6E6F000E6F6F080E706F010E02
:102B1C00716F000E726F000E736F840E6A6F000E71
:102B2C00616F240E626F180E636F2B0E646F2C0E88
:102B3C00656F020E666F040E676F900E686F600E05
:102B4C00696F820E606F040E576F260E586F2C0E35
:102B5C00596F250E5A6F000E5B6F020E5C6F000EE4
:102B6C005D6F140E5E6F000E5F6F830E566F050E59
:102B7C003D011C6F000E196F000E156F020E166FC3
:102B8C00820E146F1200000E336E040E346EBAC037
:102B9C0035F0BBC036F049C037F0C7C038F0C9C0FB
:102BAC0039F00001000EC6B1010E3A6ECFEC13F0F5
:102BBC00000E336E050E346EBCC035F0BDC036F061
:102BCC004AC037F0C7C038F0C9C039F00001000E58
:102BDC00C6B3010E3A6ECFEC13F0000E336E020E3C
:102BEC00346EBEC035F0BFC036F04BC037F0C8C035
:102BFC0038F0C9C039F00001000EC6B5010E3A6EAE
:102C0C00CFEC13F0000E336E030E346EC0C035F0F3
:102C1C00C1C036F04CC037F0C8C038F0C9C039F06C
:102C2C000001000EC6B7010E3A6ECFEC13F0000E89
:102C3C00336E060E346ECCC035F0CDC036F04EC0BF
:102C4C0037F047EC17F0000E336E070E346ECEC023
:102C5C0035F0CFC036F04DC037F047EC17F012000E
:102C6C00260EF66E340EF76E000EF86E00EE49F07E
:102C7C0010EE0CF009006F00D7FFEEFFE550E150AD
:102C8C00F9E101EE00F310EE00F1EE6AE550E150CF
:102C9C00FCE1E250FAE101EE00F210EE00F1EE6A16
:102CAC00E550E150FCE1E250FAE101EE00F110EEEA
:102CBC0000F1EE6AE550E150FCE1E250FAE101EE80
:102CCC0000F010EE00F1EE6AE550E150FCE1E2504C
:102CDC00FAE100EE00F310EE00F1EE6AE550E1507F
:102CEC00FCE1E250FAE100EE00F210EE00F1EE6AC7
:102CFC00E550E150FCE1E250FAE100EE00F1240E67
:102D0C00EE6AE806FDE100EEB4F03A0EEE6AE80673
:102D1C00FDE100EE01F0240EEE6AE806FDE10C0E7A
:102D2C00D56E200ED66E000ED76E000EF86E00011A
:102D3C0012EF10F03F011F9F3D0117ABFDD7C3945D
:102D4C00000E1B6E000E1A6E000E196E000E186E21
:102D5C00010EAA6E010E186F1A9F6000B3F012FDDF
:102D6C002C04D8A408D02B50D96EDA6ADF50116F1E
:102D7C00800E116F38D02B50D96EDA6ADF50116F7C
:102D8C002B50D96EDA6A010ED926DF50116F2C50F8
:102D9C00FE0F336E020E326E24D033C02DF02E6A2D
:102DAC002DBE2E06020E2D26000E2E2212512F6E37
:102DBC00306A2D502F5C3050800A316E2E50800AB4
:102DCC003158D8B00ED03350D8A403D0800E116F28
:102DDC0007D02B503224D96EDA6ADF50116F322AA9
:102DEC00330633AEDAD71AAFFED717ABFED71A9F1E
:102DFC003F011F8FC3841200000E946E010E966E5D
:102E0C00000E976E000E926E500E936E050E956E20
:102E1C003901A9919981000EAC6E010EAE6E000EB7
:102E2C00AF6E000EAA6E7D0EAB6EA495F00EAC6E5E
:102E3C0004D0CBB402D0000EAA6EA4A5FAD7550EBE
:102E4C003F015F6F58EC15F0800E946E3F011B69CB
:102E5C001C691D69000E126F000E136F000E146FAB
:102E6C00880E1E6F430E1F6F010E216F000E236F15
:102E7C00000E226F3901A19F818F918F3F011F8F0F
:102E8C0012003550365C386E396AD8A03906000EFF
:102E9C003D6E000E3C6E37503C5C256E3D50D8A00C
:102EAC003D04266E000E286E276845EC19F025C0EF
:102EBC002BF026C02CF038C02DF039C02EF08AEC47
:102ECC0017F02BC03AF02CC03BF03BAE04D0000EF8
:102EDC003B6E000E3A6E3BBE06D03B04D8A003D02E
:102EEC00000E3B6E3A683C503324D96E3D50342072
:102EFC00DA6E6000EBF0DFFF3C4A3D2A3DBECBD7DB
:102F0C003D04D8B01200C7D7000E306E2EAE06D0DE
:102F1C002D6C2E1ED8B02E2A010E306E2CAE06D083
:102F2C002B6C2C1ED8B02C2A010E301A000E326ECF
:102F3C00000E316E2D502E10D8B41CD0010E2F6EF9
:102F4C0004D0D8902D362E362F2A2EAEFAD7D89004
:102F5C00313632362D502B5C2E502C58D8A005D043
:102F6C002D502B5E2E502C5A3180D8902E322D3273
:102F7C002F2EEDD73050D8B404D0316C321ED8B0CF
:102F8C00322A31C02BF032C02CF01200B40E256E58
:102F9C00000E276E000E266E000E296E1C0E286E7B
:102FAC005AEC19F0470E0001B46F430EB56F2B0E9F
:102FBC00B66F320EB76F000EB96F140EB86F000EED
:102FCC00BA6FBB69000EBC6FBD69000EBE6FBF69E6
:102FDC00000EC06FC169020EC26F030EC36F000EEC
:102FEC00C46F010EC56F000EC66F180EC76F180E9A
:102FFC00C86F010EC96FCA69000ECB6F000ECC6F83
:10300C00CD69000ECE6FCF691200000EB86E470E60
:10301C00B96E7C0EB76E3901A39F800EB86EDF0EB1
:10302C00256E000E276E000E266E000E296E0F0EFA
:10303C00286E5AEC19F0D00E256E000E276E000E7D
:10304C00266E000E296E0F0E286E5AEC19F0010E2A
:10305C000001DF6F020EE06F040EE16F080EE26FED
:10306C00100EE36F010ED56F020ED66F040ED76FE4
:10307C00080ED86F100ED96F200EDA6F400EDB6F72
:10308C001200B40E2B6E000E2C6E04002B502C2450
:10309C00D96EDA6A2C50E6EC19F0DF6E030E2C18A0
:1030AC00D8A412D0470E0001B4190AE1430EB51989
:1030BC0007E12B0EB61904E1320EB719D8B404D0BF
:1030CC00CCEC17F093EC19F02C2A1B0E2C64DDD7EA
:1030DC000001B95110E1140EB85DD8B01200000E09
:1030EC00B96F130EB86F000ECC6FCD69000ECE6F9A
:1030FC00CF6993EC19F01200000ED2BE010E256EB2
:10310C00D29E550E3A01BF6FAA0EBF6FBF910A0E29
:10311C00CC6F0A0ED26F040E0A6F090E0B6F550E90
:10312C00BF6FAA0EBF6FBF8125A002D0D28E01D077
:10313C00D29EEF0EBB6EC268E70EC36EC4680F0E54
:10314C003A01406F000E506F000E606FF00E416F31
:10315C00270E516F6169000E426F040E526F000E04
:10316C00626F1200390191BFA1AF23D0A19FD890FB
:10317C0018367F0E3F01186501D002D0010E01D028
:10318C00000E1812000E196E000E926E1B2A080EFD
:10319C001B18D8A40ED0000E1A24D96EDA6A010EB0
:1031AC00DA22600063F0DFFF000E186E000E1B6E5B
:1031BC001A2A3901A9A111001A50D8B403D0010E52
:1031CC00196E02D002EC1AF03901A9911100000E0F
:1031DC00D26E010E3F01386F000EFC6E550ED46E90
:1031EC00AA0ED46E000ED46ED490080ED56E000EBE
:1031FC00D66E000ED76E550ED46EAA0ED46E010E7E
:10320C00D46ED480000EFB6E000EFA6E000EF96EBA
:10321C0012001950D8A402D0000E1200000E266E17
:10322C000ED0000E2624D96EDA6A010EDA22255051
:10323C002624E16EE26A6F007FFFE7FF262A1A5010
:10324C00265CD8A0EED71A501200000EA06E010E0C
:10325C00A26E000EA16E9F68000E9E6E800EA06E78
:10326C003F015E51FC0B02095E6F000E7C6E800EFE
:10327C007D6E9C0E7E6EBB98000E176E1200255054
:10328C0027026F00CCFF29F06F00D0FF2AF02550E9
:10329C002802F3502A2626502702F3502A2629C04A
:1032AC0025F02AC026F0120025C02AF007D02A509B
:1032BC00D96EDA6A60009BF0DFFF2A2A2806D8A0B4
:1032CC0029062828F4E12928D8B41200F0D7000EDA
:1032DC00276E2750D00FD96EDA6A27501D0FE16E7A
:1032EC00E26A6F007FFFE7FF272A0E0E2764F1D7F3
:1032FC001D0E1200000E276E2750DF0FD96EDA6AF2
:10330C0027501D0FE16EE26A6F007FFFE7FF272A4F
:10331C000E0E2764F1D71D0E1200B40E276E000E90
:10332C00286E27502824D96EDA6ADF50256E285073
:10333C00A5EC19F0282A1B0E2864F3D71200266E70
:10334C00000E3901E56F60009BF0E0F9600097F02A
:10335C00E3F9E585F0EC19F03901E5B3FDD7E59516
:10336C001200000E266E25502624D96EDA6A2650DD
:10337C00D00FE16EE26A6F007FFFE7FF262A0E0E88
:10338C002664F1D71200000E266E25502624D96E25
:10339C00DA6A2650DF0FE16EE26A6F007FFFE7FF0B
:1033AC00262A0E0E2664F1D71200000E7D6E1750E1
:1033BC00D8A402D0BB8801D0BB98010E176E1200A6
:1033CC00256E000E3901E56F600097F0E0F9E5819C
:1033DC00E3511200D29E550E3901E66FAA0EE66F2C
:1033EC00E583D28E1200000E1B6E000E1A6E000EBC
:1033FC00196E000E186E1200000E1B6E000E1A6E67
:10340C00000E196E000E186E1200256E000E176E4F
:10341C00600097F07DFFBB881200808080800000E8
:10342C00020300011314000E176E000E7D6EBB9884
:02343C0012007C
:020000040020DA
:10000000FFFFFFFFFFFFFFFFFFFFFFFFFFFFFFFF00
:020000040030CA
:0A0000008CFDE7F4ECC7E4FEFFFFFF
:00000001FF
